:1000000001308A00E9290000831A0A28A400030E9F
:10001000A5000F288312A400030EA500A5140A084A
:10002000AB008A018313A40E0408A6002008A700D1
:100030002108A8002208A9002308AA0083128C30F6
:100040008400001C25280C1843288C308400801D57
:100050002B288C194B28260884002708A000280884
:10006000A1002908A2002A08A3002B088A00250E57
:1000700083008312240EA518831609000A108A1023
:100080000A118207003483160C1003308312AE006D
:100090000C108A112B280F08A3000E08A0000F08CF
:1000A0002302031D4B282008AC002308AD008E015D
:1000B0008F018E01191F61288630831699006428EC
:1000C000831284308316990083128C118A112B2895
:1000D000831685168312851A6B280830A000BC0190
:1000E000A0178028A01380280310851A0314BC0CC5
:1000F000201780282013A00B74283C08A1008B280F
:100100003F30A01B1130A100A10B8428A01B722836
:10011000201B7A2874280800831605128312051202
:100120000830A10093280000A117A428A113BD0C3A
:1001300003180516031C05122117A4282113A10B6F
:100140009728A228000005163F308400840BA628BB
:100150000000A11B9628211B9E280800BC1BC0285C
:100160000F30A0003B0EA0050A3020020318BB2868
:100170003030A007BD283C08A0072008BD008C2017
:100180000F30BB050A303B020318C8283030CA289C
:10019000BC133C08BB073B08BD008C2008005F3047
:1001A000A000A00BD128D42893016A30A000A00B96
:1001B000D7280000053093001508CF3995000800B6
:1001C00093010230BD00DA30BE000830BE02031CCD
:1001D000F4283E3084000310800C00080319F42832
:1001E000F2280000800BF128BD0BE32805309300B6
:1001F0001508CF399500CF20BC013A083C020318FE
:100200001B293B0884000310800D840A800D840A9A
:10021000800D840A800D840A800D840A800D840A72
:10022000800D031C1829A530A000A00B1529192941
:10023000CF20BC0AFD28572A2108031924292008A9
:100240008000840AA10B1F29622A83160C108C11CE
:100250000730831299008316050885000630831243
:10026000A000A00B3129000019088C110800AD0175
:10027000AC01AC08031D4329AD08031D43292E081A
:10028000033C031D39292E08033C031D4C2925215D
:10029000FF30A1004E294E290030A1000800863011
:1002A00083169900043083129900831605080238DA
:1002B000850006308312A000A00B5C2900001908FD
:1002C0008C11AE018E018F018E01AD01AC010C10BD
:1002D0008C1183160C148C1583123721A11F7329DE
:1002E000FF30A100E8293A08BD003B08BE00BF016D
:1002F0002E08033C0319D8293D083F020318D829CA
:100300003721A11F8429D829AD08031DB1292C0844
:10031000C83C031CB1292E08023C031DAE29AE01C6
:10032000C001C008031D96290310972903143E0835
:100330008400840A840A840A840A840A840A800C59
:100340008403800C8403800C8403800C8403800C61
:100350008403800C8403800CBF0AB0290230AE00F5
:10036000D7292E08023C031DB8290330AE00D72937
:10037000AE010130C000C008031DC0290310C1290F
:1003800003143E088400840A840A840A840A840AC6
:10039000840A800C8403800C8403800C8403800C0A
:1003A0008403800C8403800C8403800CBF0A7829AA
:1003B00025212E08033C031DE129FF30A100E3297C
:1003C000E3293F08A1002108BC0025213C08A10029
:1003D000672A03081F398300713083168F0090014C
:1003E0000F08051283120516AF011F1383161F1085
:1003F0009F101F119F110730831299001530900034
:100400000030A100043892000F30831692000530AE
:10041000831293001508CF399500831605118312B6
:1004200005110C30950083168C110C10C03083120E
:100430008B0468202108B70068202108B800B901A2
:100440003908063C031C2F2A303039078400BB00D2
:1004500068203B08840021088000B90A202A3C302B
:10046000BD008C20B9013908063C031C422A3030FB
:10047000390784000008BA00BB005730BC00AE202A
:10048000B90A332ABA013A083E20003803194C2A27
:10049000BA0ABD008C20432A0D30BD008C200A30E2
:1004A000BD008C203708BA003030BB00E028C730D0
:1004B000A000A00B592A5C2A30308400A00107302C
:1004C000A1001C293808BA003030BB004F29A11BFD
:1004D000712A2108003C0318712A3030BD008C209D
:1004E000742A3130BD008C202030BD008C20B90131
:1004F0003908063C031C872A30303907840000087D
:10050000BA00BB005730BC00AE20B90A782ABA0145
:100510003A083E2000380319912ABA0ABD008C20FF
:10052000882A0D30BD008C200A30BD008C20192A8D
:02053000630066
:02400E00C40CE0
:00000001FF
;PIC12F683
;CRC=0439  CREATED="07-ene.-20 22:14"
