:1000000003308A007E2B0000831A0A28A400030E06
:10001000A5000F288312A400030EA500A5140A084A
:10002000AB008A018313A40E0408A6002008A700D1
:100030002108A8002208A9002308AA0083128C30F6
:100040008400001C25280C1875288C308400801D25
:100050002B288C197D28260884002708A000280852
:10006000A1002908A2002A08A3002B088A00250E57
:1000700083008312240EA518831609000A108A1023
:100080000A11820745346C34653463347434723435
:100090006F346E3469346334613479346334693471
:1000A00065346E34633469346134273473342034F6
:1000B00045344D3434343234303435342F344534CF
:1000C0004D3434343334303435342034773472346E
:1000D00069347434653472342E34203476343134D7
:1000E0002E34303430342E34003483160C10043067
:1000F0008312AE000C108A112B280F08A3000E08E3
:10010000A0000F082302031D7D282008AC0023084F
:10011000AD008E018F018E01191F93288630831642
:1001200099009628831284308316990083128C11CB
:100130008A112B28831685168312851A9D2808306C
:10014000A000C001A017B228A013B2280310851A7E
:100150000314C00C2017B2282013A00BA6284008B7
:10016000A100BD283F30A01B1130A100A10BB62873
:10017000A01BA428201BAC28A62808005F30A000E4
:10018000A00BC028C32893016A30A000A00BC6288A
:100190000000053093001508CF39950008002108AC
:1001A0000319D72820088000840AA10BD228080050
:1001B000863083169900043083129900831605084F
:1001C0000238850006308312A000A00BE52800004D
:1001D00019088C11AE018E018F018E01AD01AC01A9
:1001E0000C108C1183160C148C15831208008316C6
:1001F0000C108C11073083129900831605088500B6
:1002000006308312A000A00B0329000019088C11EE
:100210000800AC08031D1329AD08031D13292E087F
:10022000043C031D09292E08043C031D1C29F7204A
:10023000FF30A1001E291E290030A1000800E001A6
:10024000DF01AD01AC012E08033C0319232A60082D
:100250005C02031C232A031D31295B085F0203187B
:10026000232A0921A11F3729FE30A1002E2A2D089B
:100270003002031CB229031D41292C082F02031C44
:10028000B229AD01AC012E08023C031DAF29AE011D
:100290005E08073C031D5F295D0884000630840763
:1002A0000310800C8403800C8403800C8403800C76
:1002B0008403800C8403800C8403800CAB295D08CC
:1002C0008400233084070310800C8403800C840393
:1002D000800C8403800C8403800C8403800C8403D2
:1002E000800C8403800C8403800C8403800C8403C2
:1002F000800C8403800C8403800C8403800C8403B2
:10030000800C8403800C8403800C8403800C8403A1
:10031000800C8403800C8403800C8403800C840391
:10032000800C8403800C8403800C8403800C840381
:10033000800C8403800C8403800C8403800C840371
:10034000800C8403800C8403800C8403800C840361
:10035000800C8403800CDF0A0319E00AB129023003
:10036000AE00222AAD01AC012E08023C031DBB29C0
:100370000330AE00222AAE015E08073C031DD329DC
:100380005D088400063084070314800C8403800C0D
:100390008403800C8403800C8403800C8403800C11
:1003A0008403800C1F2A5D08840023308407031413
:1003B000800C8403800C8403800C8403800C8403F1
:1003C000800C8403800C8403800C8403800C8403E1
:1003D000800C8403800C8403800C8403800C8403D1
:1003E000800C8403800C8403800C8403800C8403C1
:1003F000800C8403800C8403800C8403800C8403B1
:10040000800C8403800C8403800C8403800C8403A0
:10041000800C8403800C8403800C8403800C840390
:10042000800C8403800C8403800C8403800C840380
:10043000800C8403800C8403800C8403800CDF0A0E
:100440000319E00A2329F7202E08033C031D2C2A58
:10045000FF30A1002E2A2E2A5F08A1000800831673
:100460000512831205120830A100362A0000A117D8
:10047000472AA113DC0C03180516031C05122117CB
:10048000472A2113A10B3A2A452A000005163F30BE
:100490008400840B492A0000A11B392A211B412A10
:1004A00008009A202108BA009A202108BB00BC014C
:1004B0003C08063C031C672A33303C078400BF001D
:1004C0009A203F08840021088000BC0A582A3A0874
:1004D000BE003330BF0093010230C100DA30C200E9
:1004E0000830C202031C7F2A423084000310800CB3
:1004F000000803197F2A7D2A0000800B7C2AC10B8B
:100500006E2A053093001508CF399500BE20C00132
:100510003E0840020318A62A3F0884000310800DFD
:10052000840A800D840A800D840A800D840A800D5F
:10053000840A800D840A800D031CA32AA530A00024
:10054000A00BA02AA42ABE20C00A882AC730A00077
:10055000A00BA82AAB2A33308400A0010730A100E9
:10056000CF20BF013B08BE003330C0000730C100C0
:10057000D8200921A11FBF2AFE30A100CD2A3F08A3
:10058000DC003E08DB004008DD004108DE001F21E2
:100590002108C200F7204208A1002108BD00BD1BB0
:1005A000E62A3D08003C0318E62ADC012F22BC01A4
:1005B0003C08063C031CE52A33303C078400000855
:1005C000BE00DC002F22BC0AD82AEE2A3D08BD1F3F
:1005D000EB2A3D08003CBE00DC002F22B92BDC01D9
:1005E0002F22B30133083E2000380319FB2AB30A37
:1005F000DC002F22F22A0D30DC002F220A30DC0032
:100600002F22DC012F22BF2B0230D8004030D70030
:1006100033308400A0012430A100CF20D820AD01C8
:10062000AC010921A11F182B0230DC002F22642B02
:100630002D083002031C392B031D222B2F082C02FE
:100640000318392BAD01AC0157080319D803D70B98
:10065000312BD808031D312BF7200330DC002F226B
:10066000642B0921A11F382B0230DC002F22642BC0
:10067000182B0130DC002030DB003330DD0024306B
:10068000DE001F212108D900F720D91B5C2B590857
:10069000003C03185C2BDC012F22DA015A08233CB2
:1006A000031C5B2B33305A0784000008DB00DC009E
:1006B0002F22DA0A4E2B642B5908D91F612B5908B7
:1006C000003CDB00DC002F22C52B9A202108B30060
:1006D000B308031D752BDC012F220310300CB5006D
:1006E0002F0CB400DC002F227D2B0310330DAF0044
:1006F000B0010318B00ADC012F22CB2B03081F39ED
:100700008300713083168F0090010F080512831249
:100710000516B001BE30AF00B1011F1383161F10C4
:100720009F101F119F110730831299001530900000
:100730000030A100043892000F308316920005307B
:10074000831293001508CF39950083160511831283
:1007500005110C30950083168C110C10C0308312DB
:100760008B049A202108B2003208633C031DBA2B87
:10077000512AEA2B3208693C031DC02BEF2AEA2BD1
:100780003208723C031DC62B042BEA2B3208743C42
:10079000031DCC2B652BEA2B32087A3C031DD42B8E
:1007A000DC012F229301EA2B3208793C031DE02B58
:1007B000DC012F22053093001508CF399500EA2B74
:1007C00032086B3C031DE72B8A010028EA2BFF301F
:0807D000DC002F22B12B6300B5
:02400E00C40CE0
:00000001FF
;PIC12F683
;CRC=D7CA  CREATED="12-ene.-20 16:52"
