:1000000002308A00EB2A00000A108A100A118207C7
:1000100045346C3465346334743472346F346E3404
:1000200069346334613479346334693465346E34EB
:1000300063346934613427347334203445344D34A7
:1000400034343234303435342F3445344D34343450
:100050003334303435342034773472346934743482
:10006000653472342E342034763431342E343034C6
:1000700032342E340034831685168312851A3E28B6
:100080000830A000B701A0175328A013532803106D
:10009000851A0314B70C201753282013A00B4728E8
:1000A0003708A1005E283F30A01B1130A100A10B32
:1000B0005728A01B4528201B4D28472808004A30F8
:1000C000A000A00B6128000093011508CF3995000E
:1000D0006A30A000A00B6A280000053093001508C4
:1000E000CF39103895000800210803197C28200812
:1000F0008000840AA10B772808002708831699003E
:1001000083128E018F018E010C100800DB01191B78
:10011000DB0A0130DC000030191B01305B02031DDB
:10012000AF280C1C96280030A100BE280F08A300A1
:100130000E08A0000F082302031D96282008DD00EA
:100140002308DE0025085E02031CAE28031DAC2830
:1001500024085D02031CAE280230DC008B288E01CF
:100160008F018E012508013C031CBE28031DBC28FD
:1001700024088F3C031CBE285C08A1000800D8019D
:10018000D7010530D90058085402031CC529031DA6
:10019000CD28530857020318C52986202108DA0004
:1001A000DA08031DD6280130A100C7295908053CEB
:1001B000031DE028D9012608831699008312C3285D
:1001C0005A0B51295908023C031D4E29D9015608E2
:1001D000073C031DFE2855088400063084070310E1
:1001E000800C8403800C8403800C8403800C8403C3
:1001F000800C8403800C8403800C4A2955088400F9
:10020000233084070310800C8403800C8403800C4B
:100210008403800C8403800C8403800C8403800C92
:100220008403800C8403800C8403800C8403800C82
:100230008403800C8403800C8403800C8403800C72
:100240008403800C8403800C8403800C8403800C62
:100250008403800C8403800C8403800C8403800C52
:100260008403800C8403800C8403800C8403800C42
:100270008403800C8403800C8403800C8403800C32
:100280008403800C8403800C8403800C8403800C22
:100290008403800CD70A0319D80A50290230D900E8
:1002A000C4295A08023C031DC4295908023C031DF5
:1002B0005D290230A100C729C429D9015608073C8D
:1002C000031D752955088400063084070314800C2B
:1002D0008403800C8403800C8403800C8403800CD2
:1002E0008403800C8403800CC129550884002330CA
:1002F00084070314800C8403800C8403800C840323
:10030000800C8403800C8403800C8403800C8403A1
:10031000800C8403800C8403800C8403800C840391
:10032000800C8403800C8403800C8403800C840381
:10033000800C8403800C8403800C8403800C840371
:10034000800C8403800C8403800C8403800C840361
:10035000800C8403800C8403800C8403800C840351
:10036000800C8403800C8403800C8403800C840341
:10037000800C8403800C8403800C8403800C840331
:10038000800CD70A0319D80AC3280030A10008003E
:1003900083160512831205120830A100CF29000030
:1003A000A117E029A113D40C03180516031C05128C
:1003B0002117E0292113A10BD329DE2900000516FE
:1003C0003F308400840BE2290000A11BD229211BAD
:1003D000DA2908003B202108B1003B202108B200A7
:1003E000B3013308063C031C002A2A30330784007B
:1003F000B6003B203608840021088000B30AF129AA
:100400003108B5002A30B60093011508CF399500A0
:100410000230B800DA30B9000830B902031C1B2AD8
:10042000393084000310800C000803191B2A192A94
:100430000000800B182AB80B0A2A05309300150813
:10044000CF39103895005F20B701350837020318FF
:10045000432A360884000310800D840A800D840A24
:10046000800D840A800D840A800D840A800D840A20
:10047000800D031C402AA530A000A00B3D2A412A74
:100480005F20B70A252A2A308400A0010730A10086
:100490007420A630A000A00B4B2A00007D20D401C0
:1004A0003208D3002A30D5000730D600BF202108FB
:1004B000B400B408031D6D2AD401C821B301330868
:1004C000063C031C6C2A2A30330784000008B50060
:1004D000D400C821B30A5F2A702A3408D400C82186
:1004E0003A2BD401C821AA012A0804200038031994
:1004F0007D2AAA0AD400C821742A0D30D400C8214C
:100500000A30D400C821D401C8214D2B0230CF00BD
:100510004030CE002A308400A0012430A100742095
:100520007D2086202108D0005008023C0319AE2A05
:10053000D008031D9F2A0130D400C821D12A500BB6
:10054000AD2A4E080319CF03CE0BAD2ACF08031DE9
:10055000AD2A0330D400C821D12A912A8620013047
:10056000D4002030D3002A30D5002430D600BF205C
:100570002108D100D108031DCE2AD401C821D201FF
:100580005208233C031CCD2A2A305207840000085D
:10059000D300D400C821D20AC02AD12A5108D400DD
:1005A000C8215C2B3B202108AA00AA08031DE22ACF
:1005B000D401C8210310250CAC00240CAB00D400DE
:1005C000C821EA2A03102A0DA400A5010318A50AD0
:1005D000D401C821622B03081F39830071308316B0
:1005E0008F0090010F08051283120516A501BE3079
:1005F000A4008530A600AB30A700A8011F13831606
:100600001F109F101F119F11073083129900713026
:1006100083168F00073090000F0804308312990072
:10062000831605080238850006308312A000A00B4F
:10063000172B000019088C11153090000030A10014
:10064000043892000F308316920005308312930015
:100650001508CF391038950083160511831205113E
:100660000C3095003B202108A9002908633C031D9C
:100670003B2BEA297E2B2908683C031D482B3B2095
:100680002108A6003B202108A700D401C8217E2B09
:100690002908693C031D4E2B712A7E2B29086B3CCF
:1006A000031D572BD401C8218A0100287E2B29085D
:1006B000723C031D5D2B862A7E2B2908743C031D8A
:1006C000632BD22A7E2B2908793C031D702B053021
:1006D00093001508CF3910389500D401C8217E2B1E
:1006E00029087A3C031D7B2B93011508CF3995000F
:1006F000D401C8217E2BFF30D400C821322B6300E7
:02400E00C40CE0
:00000001FF
;PIC12F683
;CRC=81E6  CREATED="16-feb.-20 14:05"
