:1000000003308A00972B0000831A0A28A400030EED
:10001000A5000F288312A400030EA500A5140A084A
:10002000AB008A018313A40E0408A6002008A700D1
:100030002108A8002208A9002308AA0083128C30F6
:100040008400001C25280C1875288C308400801D25
:100050002B288C197D28260884002708A000280852
:10006000A1002908A2002A08A3002B088A00250E57
:1000700083008312240EA518831609000A108A1023
:100080000A11820745346C34653463347434723435
:100090006F346E3469346334613479346334693471
:1000A00065346E34633469346134273473342034F6
:1000B00045344D3434343234303435342F344534CF
:1000C0004D3434343334303435342034773472346E
:1000D00069347434653472342E34203476343134D7
:1000E0002E34303431342E34003483160C10043066
:1000F0008312AE000C108A112B280F08A3000E08E3
:10010000A0000F082302031D7D282008E500230816
:10011000E6008E018F018E01E608031D9328650815
:10012000173C0318B028191FA128B30803199C28ED
:100130008316851283128512310883169900AB2825
:100140008312B3080319A828831685128312851613
:1001500032088316990083126608AD006508AC006A
:100160008C118A112B28831685168312851AB628BE
:100170000830A000C301A017CB28A013CB28031080
:10018000851A0314C30C2017CB282013A00BBF28FB
:100190004308A100D6283F30A01B1130A100A10BBD
:1001A000CF28A01BBD28201BC528BF2808005F3012
:1001B000A000A00BD928DC2893016A30A000A00B76
:1001C000DF280000053093001508CF39950008009E
:1001D00021080319F02820088000840AA10BEB28CD
:1001E00008003108831699000430831299008316A1
:1001F00005080238850006308312A000A00BFE28F7
:10020000000019088C11AE018E018F018E01AD0125
:10021000AC010C108C1183160C148C158312080081
:1002200083160C108C110730831299008316050871
:10023000850006308312A000A00B1C2900001908BD
:100240008C110800AC08031D2C29AD08031D2C29B6
:100250002E08043C031D22292E08043C031D3529C9
:100260001021FF30A100372937290030A1000800F4
:10027000E301E201AD01AC012E08033C03193C2A65
:1002800063085F02031C3C2A031D4A295E086202C0
:1002900003183C2A2221A11F5029FE30A100472A21
:1002A0002D083002031CCB29031D5A292C082F02CC
:1002B000031CCB29AD01AC012E08023C031DC8294B
:1002C000AE016108073C031D7829600884000630F0
:1002D00084070310800C8403800C8403800C840347
:1002E000800C8403800C8403800C8403800CC4295C
:1002F00060088400233084070310800C8403800C82
:100300008403800C8403800C8403800C8403800CA1
:100310008403800C8403800C8403800C8403800C91
:100320008403800C8403800C8403800C8403800C81
:100330008403800C8403800C8403800C8403800C71
:100340008403800C8403800C8403800C8403800C61
:100350008403800C8403800C8403800C8403800C51
:100360008403800C8403800C8403800C8403800C41
:100370008403800C8403800C8403800C8403800C31
:100380008403800C8403800CE20A0319E30ACA295F
:100390000230AE003B2AAD01AC012E08023C031D29
:1003A000D4290330AE003B2AAE016108073C031D8F
:1003B000EC2960088400063084070314800C840351
:1003C000800C8403800C8403800C8403800C8403E1
:1003D000800C8403800C382A600884002330840752
:1003E0000314800C8403800C8403800C8403800C31
:1003F0008403800C8403800C8403800C8403800CB1
:100400008403800C8403800C8403800C8403800CA0
:100410008403800C8403800C8403800C8403800C90
:100420008403800C8403800C8403800C8403800C80
:100430008403800C8403800C8403800C8403800C70
:100440008403800C8403800C8403800C8403800C60
:100450008403800C8403800C8403800C8403800C50
:100460008403800C8403800C8403800C8403800C40
:10047000E20A0319E30A3C2910212E08033C031D5C
:10048000452AFF30A100472A472A6208A100080038
:1004900083160512831205120830A1004F2A0000AE
:1004A000A117602AA113DF0C03180516031C0512FF
:1004B0002117602A2113A10B532A5E2A000005167A
:1004C0003F308400840B622A0000A11B522A211BAA
:1004D0005A2A0800B3202108BD00B3202108BE001D
:1004E000BF013F08063C031C802A36303F078400CA
:1004F000C200B3204208840021088000BF0A712A8C
:100500003D08C1003630C20093010230C400DA3029
:10051000C5000830C502031C982A4530840003102A
:10052000800C00080319982A962A0000800B952A4F
:10053000C40B872A053093001508CF399500D720C2
:10054000C301410843020318BF2A42088400031074
:10055000800D840A800D840A800D840A800D840A2F
:10056000800D840A800D840A800D031CBC2AA530EE
:10057000A000A00BB92ABD2AD720C30AA12AC730E0
:10058000A000A00BC12AC42A36308400A001073085
:10059000A100E820C2013E08C1003630C300073088
:1005A000C400F1202221A11FD82AFE30A100E62A92
:1005B0004208DF004108DE004308E0004408E10093
:1005C00038212108C50010214508A1002108C000DC
:1005D000C01BFF2A4008003C0318FF2ADF01482205
:1005E000BF013F08063C031CFE2A36303F0784004B
:1005F0000008C100DF004822BF0AF12A072B40088B
:10060000C01F042B4008003CC100DF004822D72B4C
:10061000DF014822B60136083E2000380319142BAA
:10062000B60ADF0048220B2B0D30DF0048220A30CB
:10063000DF004822DF014822F32B0230DB0040308C
:10064000DA0036308400A0012430A100E820F12037
:10065000AD01AC012221A11F312B0230DF00482265
:100660007D2B2D083002031C522B031D3B2B2F0822
:100670002C020318522BAD01AC015A080319DB03FD
:10068000DA0B4A2BDB08031D4A2B10210330DF0055
:1006900048227D2B2221A11F512B0230DF0048224E
:1006A0007D2B312B0130DF002030DE003630E000C2
:1006B0002430E10038212108DC001021DC1B752BDF
:1006C0005C08003C0318752BDF014822DD015D0842
:1006D000233C031C742B36305D0784000008DE00C9
:1006E000DF004822DD0A672B7D2B5C08DC1F7A2B9C
:1006F0005C08003CDE00DF004822002CB32021080B
:10070000B600B608031D8E2BDF0148220310300C03
:10071000B8002F0CB700DF004822962B0310360DCF
:10072000AF00B0010318B00ADF014822062C03080D
:100730001F398300713083168F0090010F08051256
:1007400083120516B001BE30AF008630B100843090
:10075000B200B301B4011F1383161F109F101F11A5
:100760009F11073083129900153090000030A100CE
:10077000043892000F3083169200053083129300E4
:100780001508CF39950083160511831205110C3019
:10079000950083168C110C10C03083128B04B3208B
:1007A0002108B5003508633C031DD82B6A2A1E2C8E
:1007B0003508643C031DE12B0130B300DF01482202
:1007C0001E2C3508683C031DEE2BB3202108B10018
:1007D000B3202108B200DF0148221E2C3508693CF5
:1007E000031DF42B082B1E2C35086B3C031DFB2B23
:1007F0008A0100281E2C3508723C031D012C1D2B7C
:100800001E2C3508743C031D072C7E2B1E2C35082E
:10081000793C031D132CDF01482205309300150895
:10082000CF3995001E2C35087A3C031D1B2CDF01A7
:10083000482293011E2CFF30DF004822CF2B63009B
:02400E00C40CE0
:00000001FF
;PIC12F683
;CRC=DFE8  CREATED="15-ene.-20 20:02"
