:1000000002308A00E12A00000A108A100A118207D1
:1000100045346C3465346334743472346F346E3404
:1000200069346334613479346334693465346E34EB
:1000300063346934613427347334203445344D34A7
:1000400034343234303435342F3445344D34343450
:100050003334303435342034773472346934743482
:10006000653472342E342034763431342E343034C6
:1000700032342E340034831685168312851A3E28B6
:100080000830A000B701A0175328A013532803106D
:10009000851A0314B70C201753282013A00B4728E8
:1000A0003708A1005E283F30A01B1130A100A10B32
:1000B0005728A01B4528201B4D28472808004A30F8
:1000C000A000A00B6128000093011508CF3995000E
:1000D0006A30A000A00B6A280000053093001508C4
:1000E000CF39103895000800210803197C28200812
:1000F0008000840AA10B772808002708831699003E
:1001000083128E018F018E010C100800DB01191B78
:10011000DB0A0130DC000030191B01305B02031DDB
:10012000AF280C1C96280030A100B4280F08A300AB
:100130000E08A0000F082302031D96282008DD00EA
:100140002308DE0025085E02031CAE28031DAC2830
:1001500024085D02031CAE280230DC008B288E01CF
:100160008F018E015C08A1000800D801D70105307D
:10017000D90058085402031CBB29031DC328530887
:1001800057020318BB2986202108DA00DA08031D6C
:10019000CC280130A100BD295908053C031DD628F3
:1001A000D9012608831699008312B9285A0B4729CA
:1001B0005908023C031D4429D9015608073C031D78
:1001C000F42855088400063084070310800C84034B
:1001D000800C8403800C8403800C8403800C8403D3
:1001E000800C8403800C4029550884002330840748
:1001F0000310800C8403800C8403800C8403800C27
:100200008403800C8403800C8403800C8403800CA2
:100210008403800C8403800C8403800C8403800C92
:100220008403800C8403800C8403800C8403800C82
:100230008403800C8403800C8403800C8403800C72
:100240008403800C8403800C8403800C8403800C62
:100250008403800C8403800C8403800C8403800C52
:100260008403800C8403800C8403800C8403800C42
:100270008403800C8403800C8403800C8403800C32
:10028000D70A0319D80A46290230D900BA295A08D0
:10029000023C031DBA295908023C031D53290230B0
:1002A000A100BD29BA29D9015608073C031D6B29B5
:1002B00055088400063084070314800C8403800CE6
:1002C0008403800C8403800C8403800C8403800CE2
:1002D0008403800CB7295508840023308407031455
:1002E000800C8403800C8403800C8403800C8403C2
:1002F000800C8403800C8403800C8403800C8403B2
:10030000800C8403800C8403800C8403800C8403A1
:10031000800C8403800C8403800C8403800C840391
:10032000800C8403800C8403800C8403800C840381
:10033000800C8403800C8403800C8403800C840371
:10034000800C8403800C8403800C8403800C840361
:10035000800C8403800C8403800C8403800C840351
:10036000800C8403800C8403800C8403800CD70AE7
:100370000319D80AB9280030A10008008316051215
:10038000831205120830A100C5290000A117D62943
:10039000A113D40C03180516031C05122117D62926
:1003A0002113A10BC929D429000005163F30840070
:1003B000840BD8290000A11BC829211BD0290800C3
:1003C0003B202108B1003B202108B200B3013308D3
:1003D000063C031CF6292A3033078400B6003B2074
:1003E0003608840021088000B30AE7293108B500E7
:1003F0002A30B60093011508CF3995000230B800B5
:10040000DA30B9000830B902031C112A39308400EF
:100410000310800C00080319112A0F2A0000800B1A
:100420000E2AB80B002A053093001508CF39103872
:1004300095005F20B701350837020318392A3608BE
:1004400084000310800D840A800D840A800D840AC4
:10045000800D840A800D840A800D840A800D031C9F
:10046000362AA530A000A00B332A372A5F20B70A0E
:100470001B2A2A308400A0010730A1007420A63076
:10048000A000A00B412A00007D20D4013208D30037
:100490002A30D5000730D600B5202108B400B408B2
:1004A000031D632AD401BE21B3013308063C031C9B
:1004B000622A2A30330784000008B500D400BE2128
:1004C000B30A552A662A3408D400BE21302BD40141
:1004D000BE21AA012A08042000380319732AAA0A97
:1004E000D400BE216A2A0D30D400BE210A30D400C7
:1004F000BE21D401BE21432B0230CF004030CE00BC
:100500002A308400A0012430A10074207D208620A0
:100510002108D0005008023C0319A42AD008031D6A
:10052000952A0130D400BE21C72A500BA32A4E08B9
:100530000319CF03CE0BA32ACF08031DA32A033030
:10054000D400BE21C72A872A86200130D40020305B
:10055000D3002A30D5002430D600B5202108D100A0
:10056000D108031DC42AD401BE21D2015208233C64
:10057000031CC32A2A30520784000008D300D40089
:10058000BE21D20AB62AC72A5108D400BE21522B56
:100590003B202108AA00AA08031DD82AD401BE21A5
:1005A0000310250CAC00240CAB00D400BE21E02AC3
:1005B00003102A0DA400A5010318A50AD401BE2129
:1005C000582B03081F398300713083168F00900168
:1005D0000F08051283120516A501BE30A400853050
:1005E000A600AB30A700A8011F1383161F109F1091
:1005F0001F119F11073083129900713083168F00ED
:10060000073090000F080430831299008316050804
:100610000238850006308312A000A00B0D2B0000CD
:1006200019088C11153090000030A1000438920098
:100630000F30831692000530831293001508CF39CE
:100640001038950083160511831205110C309500A2
:100650003B202108A9002908633C031D312BE02918
:10066000742B2908683C031D3E2B3B202108A60063
:100670003B202108A700D401BE21742B2908693C26
:10068000031D442B672A742B29086B3C031D4D2B3B
:10069000D401BE218A010028742B2908723C031D55
:1006A000532B7C2A742B2908743C031D592BC82A10
:1006B000742B2908793C031D662B0530930015081F
:1006C000CF3910389500D401BE21742B29087A3C0B
:1006D000031D712B93011508CF399500D401BE215C
:0C06E000742BFF30D400BE21282B6300D7
:02400E00C40CE0
:00000001FF
;PIC12F683
;CRC=2E44  CREATED="16-feb.-20 20:06"
