:1000000002308A00E32A00000A108A100A118207CF
:1000100045346C3465346334743472346F346E3404
:1000200069346334613479346334693465346E34EB
:1000300063346934613427347334203445344D34A7
:1000400034343234303435342F3445344D34343450
:100050003334303435342034773472346934743482
:10006000653472342E342034763431342E343034C6
:1000700032342E340034831685168312851A3E28B6
:100080000830A000B701A0175328A013532803106D
:10009000851A0314B70C201753282013A00B4728E8
:1000A0003708A1005E283F30A01B1130A100A10B32
:1000B0005728A01B4528201B4D28472808004A30F8
:1000C000A000A00B6128000093016A30A000A00BE3
:1000D00067280000053093001508CF399500080007
:1000E00021080319782820088000840AA10B7328AE
:1000F000080027088316990083128E018F018E0154
:100100000C100800DB01191BDB0A0130DC00003099
:10011000191B01305B02031DAB280C1C9228003018
:10012000A100BA280F08A3000E08A0000F082302A0
:10013000031D92282008DD002308DE0025085E024A
:10014000031CAA28031DA82824085D02031CAA2852
:100150000230DC0087288E018F018E012508013CCA
:10016000031CBA28031DB82824088F3C031CBA2896
:100170005C08A1000800D801D7010530D900580853
:100180005402031CC129031DC92853085702031830
:10019000C12982202108DA00DA08031DD2280130A3
:1001A000A100C3295908053C031DDC28D9012608F4
:1001B000831699008312BF285A0B4D295908023C17
:1001C000031D4A29D9015608073C031DFA28550882
:1001D0008400063084070310800C8403800C8403A1
:1001E000800C8403800C8403800C8403800C8403C3
:1001F000800C462955088400233084070310800CA6
:100200008403800C8403800C8403800C8403800CA2
:100210008403800C8403800C8403800C8403800C92
:100220008403800C8403800C8403800C8403800C82
:100230008403800C8403800C8403800C8403800C72
:100240008403800C8403800C8403800C8403800C62
:100250008403800C8403800C8403800C8403800C52
:100260008403800C8403800C8403800C8403800C42
:100270008403800C8403800C8403800C8403800C32
:100280008403800C8403800C8403800CD70A031938
:10029000D80A4C290230D900C0295A08023C031D53
:1002A000C0295908023C031D59290230A100C32965
:1002B000C029D9015608073C031D7129550884003F
:1002C000063084070314800C8403800C8403800CA4
:1002D0008403800C8403800C8403800C8403800CD2
:1002E000BD2955088400233084070314800C84033F
:1002F000800C8403800C8403800C8403800C8403B2
:10030000800C8403800C8403800C8403800C8403A1
:10031000800C8403800C8403800C8403800C840391
:10032000800C8403800C8403800C8403800C840381
:10033000800C8403800C8403800C8403800C840371
:10034000800C8403800C8403800C8403800C840361
:10035000800C8403800C8403800C8403800C840351
:10036000800C8403800C8403800C8403800C840341
:10037000800C8403800C8403800CD70A0319D80AEC
:10038000BF280030A1000800831605128312051251
:100390000830A100CB290000A117DC29A113D40C3F
:1003A00003180516031C05122117DC292113A10BC4
:1003B000CF29DA29000005163F308400840BDE299E
:1003C0000000A11BCE29211BD62908003B202108B3
:1003D000B1003B202108B200B3013308063C031CE6
:1003E000FC292A3033078400B6003B2036088400FD
:1003F00021088000B30AED293108B5002A30B60083
:1004000093010230B800DA30B9000830B902031C99
:10041000142A393084000310800C00080319142AB0
:10042000122A0000800B112AB80B032A0530930012
:100430001508CF3995005F20B7013508370203183A
:100440003B2A360884000310800D840A800D840A3C
:10045000800D840A800D840A800D840A800D840A30
:10046000800D031C382AA530A000A00B352A392A9C
:100470005F20B70A1D2A2A308400A0010730A1009E
:100480007020A630A000A00B432A00007920D401E0
:100490003208D3002A30D5000730D600BB2021080F
:1004A000B400B408031D652AD401C421B301330884
:1004B000063C031C642A2A30330784000008B50078
:1004C000D400C421B30A572A682A3408D400C421AE
:1004D0002A2BD401C421AA012A08042000380319B8
:1004E000752AAA0AD400C4216C2A0D30D400C42174
:1004F0000A30D400C421D401C4213D2B0230CF00E6
:100500004030CE002A308400A0012430A1007020A9
:10051000792082202108D0005008023C0319A62A25
:10052000D008031D972A0130D400C421C92A500BDA
:10053000A52A4E080319CF03CE0BA52ACF08031D09
:10054000A52A0330D400C421C92A892A8220013077
:10055000D4002030D3002A30D5002430D600BB2070
:100560002108D100D108031DC62AD401C421D2011B
:100570005208233C031CC52A2A3052078400000875
:10058000D300D400C421D20AB82AC92A5108D40001
:10059000C4214C2B3B202108AA00AA08031DDA2AFB
:1005A000D401C4210310250CAC00240CAB00D400F2
:1005B000C421E22A03102A0DA400A5010318A50AEC
:1005C000D401C421522B03081F39830071308316D4
:1005D0008F0090010F08051283120516A501BE3089
:1005E000A4008530A600AB30A700A8011F13831616
:1005F0001F109F101F119F110730831299000430A4
:100600009900831605080238850006308312A00081
:10061000A00B082B000019088C1115309000003039
:10062000A100043892000F30831692000530831227
:1006300093001508CF399500831605118312051113
:100640000C3095003B202108A9002908633C031DBC
:100650002B2BE6296A2B2908683C031D382B3B20ED
:100660002108A6003B202108A700D401C4216A2B41
:100670002908693C031D3E2B692A6A2B29086B3C1B
:10068000031D472BD401C4218A0100286A2B2908A5
:10069000723C031D4D2B7E2A6A2B2908743C031DD6
:1006A000532BCA2A6A2B2908793C031D5F2B05307E
:1006B00093001508CF399500D401C4216A2B29086D
:1006C0007A3C031D672B9301D401C4216A2BFF30B0
:0806D000D400C421222B6300B9
:02400E00C40CE0
:00000001FF
;PIC12F683
;CRC=628C  CREATED="02-feb.-20 13:16"
