:1000000002308A00502A0000831A0A28A400030E36
:10001000A5000F288312A400030EA500A5140A084A
:10002000AB008A018313A40E0408A6002008A700D1
:100030002108A8002208A9002308AA0083128C30F6
:100040008400001C25280C1875288C308400801D25
:100050002B288C197D28260884002708A000280852
:10006000A1002908A2002A08A3002B088A00250E57
:1000700083008312240EA518831609000A108A1023
:100080000A11820745346C34653463347434723435
:100090006F346E3469346334613479346334693471
:1000A00065346E34633469346134273473342034F6
:1000B00045344D3434343234303435342F344534CF
:1000C0004D3434343334303435342034773472346E
:1000D00069347434653472342E34203476343134D7
:1000E0002E34303430342E34003483160C10033068
:1000F0008312AE000C108A112B280F08A3000E08E3
:10010000A0000F082302031D7D282008AC0023084F
:10011000AD008E018F018E01191F93288630831642
:1001200099009628831284308316990083128C11CB
:100130008A112B28831685168312851A9D2808306C
:10014000A000BD01A017B228A013B2280310851A81
:100150000314BD0C2017B2282013A00BA6283D08BD
:10016000A100BD283F30A01B1130A100A10BB62873
:10017000A01BA428201BAC28A62808005F30A000E4
:10018000A00BC028C32893016A30A000A00BC6288A
:100190000000053093001508CF399500080083163C
:1001A0000C108C1107308312990083160508850006
:1001B00006308312A000A00BDB28000019088C1168
:1001C0000800AD01AC01AC08031DED28AD08031D0E
:1001D000ED282E08033C031DE3282E08033C031DD5
:1001E000F628CF20FF30A100F828F8280030A10021
:1001F000080083160512831205120830A100002999
:100200000000A1171129A113BC0C03180516031C2B
:100210000512211711292113A10B04290F29000010
:1002200005163F308400840B13290000A11B03290D
:10023000211B0B2908009A202108B8009A202108C8
:10024000B900BA013A08063C031C312931303A079B
:100250008400BC009A203C08840021088000BA0A6F
:1002600022293808BB003130BC0093010230BE00A7
:10027000DA30BF000830BF02031C49293F30840038
:100280000310800C00080319492947290000800B3E
:100290004629BE0B3829053093001508CF39950043
:1002A000BE20BD013B083D02031870293C088400B4
:1002B0000310800D840A800D840A800D840A800D4D
:1002C000840A800D840A800D840A800D031C6D2928
:1002D000A530A000A00B6A296E29BE20BD0A5229B4
:1002E000C730A000A00B7229752931308400A0010D
:1002F0000730A10021080319822920088000840A00
:10030000A10B7D293908BB003130BC008630831633
:10031000990004308312990083160508023885007D
:1003200006308312A000A00B9329000019088C113D
:10033000AE018E018F018E01AD01AC010C108C114C
:1003400083160C148C158312E120A11FAA29FF30FB
:10035000A1001F2A3B08BE003C08BF00C0012E08B8
:10036000033C03190F2A3E08400203180F2AE1201C
:10037000A11FBB290F2AAD08031DE8292C08C83C82
:10038000031CE8292E08023C031DE529AE01C1012A
:10039000C108031DCD290310CE2903143F08840092
:1003A000840A840A840A840A840A840A800C8403E6
:1003B000800C8403800C8403800C8403800C8403F1
:1003C000800C8403800CC00AE7290230AE000E2A9C
:1003D0002E08023C031DEF290330AE000E2AAE01A9
:1003E0000130C100C108031DF7290310F8290314C7
:1003F0003F088400840A840A840A840A840A840ADE
:10040000800C8403800C8403800C8403800C8403A0
:10041000800C8403800C8403800CC00AAF29CF2099
:100420002E08033C031D182AFF30A1001A2A1A2A9D
:100430004008A1002108BD00CF203D08A100A11B5C
:10044000282A2108003C0318282ABC01F9202C2A5C
:100450000130BC00F9203A2ABA013A08063C031CD4
:100460003A2A31303A0784000008BB00BC00F9206A
:10047000BA0A2D2A882ABC01F920B10131083E2090
:1004800000380319472AB10ABC00F9203E2A0D3072
:10049000BC00F9200A30BC00F920BC01F9208E2AEA
:1004A00003081F398300713083168F0090010F08F5
:1004B000051283120516AF011F1383161F109F101C
:1004C0001F119F11073083129900153090000030E2
:1004D000A100043892000F30831692000530831279
:1004E00093001508CF399500831605118312051165
:1004F0000C30950083168C110C10C03083128B04C5
:100500009A202108B0003008633C031D892A1B296A
:10051000A62A3008693C031D8F2A3B2AA62A3008E8
:100520007A3C031D972ABC01F9209301A62A3008C2
:10053000793C031DA32ABC01F9200530930015085E
:10054000CF399500A62AFF30BC00F920802A63002D
:02400E00C40CE0
:00000001FF
;PIC12F683
;CRC=52B0  CREATED="11-ene.-20 13:40"
