:1000000002308A00F22A00000A108A100A118207C0
:1000100045346C3465346334743472346F346E3404
:1000200069346334613479346334693465346E34EB
:1000300063346934613427347334203445344D34A7
:1000400034343234303435342F3445344D34343450
:100050003334303435342034773472346934743482
:10006000653472342E342034763431342E343034C6
:1000700032342E340034831685168312851A3E28B6
:100080000830A000B701A0175328A013532803106D
:10009000851A0314B70C201753282013A00B4728E8
:1000A0003708A1005E283F30A01B1130A100A10B32
:1000B0005728A01B4528201B4D28472808005F30E3
:1000C000A000A00B6128642893016A30A000A00B57
:1000D00067280000053093001508CF399500080007
:1000E00021080319782820088000840AA10B7328AE
:1000F000080083168512831285122708831699003B
:1001000083128E018F018E010C10831685168312C7
:100110000800DB01191BDB0A0130DC000030191B71
:1001200001305B02031DB2280C1C99280030A1008D
:10013000C9280F08A3000E08A0000F082302031D02
:1001400099282008DD002308DE0025085E02031C34
:10015000B128031DAF2824085D02031CB12802301A
:10016000DC008E288E018F018E0185168316851284
:10017000831285128316851283122508013C031C05
:10018000C928031DC72824088F3C031CC9285C0804
:10019000A1000800D801D7010530D9005808540241
:1001A000031CD029031DD828530857020318D0294F
:1001B00089202108DA00DA08031DE1280130A100B6
:1001C000D2295908053C031DEB28D90126088316BE
:1001D00099008312CE285A0B5C295908023C031D52
:1001E0005929D9015608073C031D092955088400DF
:1001F000063084070310800C8403800C8403800C79
:100200008403800C8403800C8403800C8403800CA2
:10021000552955088400233084070310800C84037B
:10022000800C8403800C8403800C8403800C840382
:10023000800C8403800C8403800C8403800C840372
:10024000800C8403800C8403800C8403800C840362
:10025000800C8403800C8403800C8403800C840352
:10026000800C8403800C8403800C8403800C840342
:10027000800C8403800C8403800C8403800C840332
:10028000800C8403800C8403800C8403800C840322
:10029000800C8403800C8403800C8403800C840312
:1002A000800C8403800C8403800CD70A0319D80ABD
:1002B0005B290230D900CF295A08023C031DCF29FF
:1002C0005908023C031D68290230A100D229CF2918
:1002D000D9015608073C031D8029550884000630C3
:1002E00084070314800C8403800C8403800C840333
:1002F000800C8403800C8403800C8403800CCC2944
:1003000055088400233084070314800C8403800C78
:100310008403800C8403800C8403800C8403800C91
:100320008403800C8403800C8403800C8403800C81
:100330008403800C8403800C8403800C8403800C71
:100340008403800C8403800C8403800C8403800C61
:100350008403800C8403800C8403800C8403800C51
:100360008403800C8403800C8403800C8403800C41
:100370008403800C8403800C8403800C8403800C31
:100380008403800C8403800C8403800C8403800C21
:100390008403800C8403800CD70A0319D80ACE2862
:1003A0000030A100080083160512831205120830E0
:1003B000A100DA290000A117EB29A113D40C03181E
:1003C0000516031C05122117EB292113A10BDE29A9
:1003D000E929000005163F308400840BED29000058
:1003E000A11BDD29211BE52908003B202108B100C4
:1003F0003B202108B200B3013308063C031C0B2A42
:100400002A3033078400B6003B20360884002108D8
:100410008000B30AFC293108B5002A30B6009301E8
:100420000230B800DA30B9000830B902031C232AC0
:10043000393084000310800C00080319232A212A74
:100440000000800B202AB80B122A053093001508F3
:10045000CF3995005F20B7013508370203184A2AC3
:10046000360884000310800D840A800D840A800DF4
:10047000840A800D840A800D840A800D840A800D10
:10048000031C472AA530A000A00B442A482A5F205D
:10049000B70A2C2A2A308400A0010730A10070205E
:1004A000A630A000A00B522A00007920D401320807
:1004B000D3002A30D5000730D600CA202108B40066
:1004C000B408031D742AD401D321B3013308063CB8
:1004D000031C732A2A30330784000008B500D400B7
:1004E000D321B30A662A772A3408D400D321392BC2
:1004F000D401D321AA012A08042000380319842A30
:10050000AA0AD400D3217B2A0D30D400D3210A308B
:10051000D400D321D401D3214C2B0230CF00403062
:10052000CE002A308400A0012430A1007020792060
:1005300089202108D0005008023C0319B52AD008B0
:10054000031DA62A0130D400D321D82A500BB42A87
:100550004E080319CF03CE0BB42ACF08031DB42ACB
:100560000330D400D321D82A982A89200130D4001E
:100570002030D3002A30D5002430D600CA202108EC
:10058000D100D108031DD52AD401D321D2015208AC
:10059000233C031CD42A2A30520784000008D300CD
:1005A000D400D321D20AC72AD82A5108D400D32193
:1005B0005B2B3B202108AA00AA08031DE92AD401CD
:1005C000D3210310250CAC00240CAB00D400D321A4
:1005D000F12A03102A0DA400A5010318A50AD401CD
:1005E000D321612B03081F398300713083168F00DC
:1005F00090010F08051283120516A501BE30A40054
:100600008530A600AB30A700A8011F1383161F106A
:100610009F101F119F110730831299000430990019
:10062000831605080238850006308312A000A00B4F
:10063000172B000019088C11153090000030A10014
:10064000043892000F308316920005308312930015
:100650001508CF39950083160511831205110C304A
:1006600095003B202108A9002908633C031D3A2B73
:10067000F529792B2908683C031D472B3B202108CD
:10068000A6003B202108A700D401D321792B2908FB
:10069000693C031D4D2B782A792B29086B3C031DDF
:1006A000562BD401D3218A010028792B2908723CCA
:1006B000031D5C2B8D2A792B2908743C031D622BAA
:1006C000D92A792B2908793C031D6E2B053093001C
:1006D0001508CF399500D401D321792B29087A3C0C
:1006E000031D762B9301D401D321792BFF30D40045
:0606F000D321312B630051
:02400E00C40CE0
:00000001FF
;PIC12F683
;CRC=DD9C  CREATED="26-ene.-20 00:15"
