:1000000003308A00932B0000831A0A28A400030EF1
:10001000A5000F288312A400030EA500A5140A084A
:10002000AB008A018313A40E0408A6002008A700D1
:100030002108A8002208A9002308AA0083128C30F6
:100040008400001C25280C1875288C308400801D25
:100050002B288C197D28260884002708A000280852
:10006000A1002908A2002A08A3002B088A00250E57
:1000700083008312240EA518831609000A108A1023
:100080000A11820745346C34653463347434723435
:100090006F346E3469346334613479346334693471
:1000A00065346E34633469346134273473342034F6
:1000B00045344D3434343234303435342F344534CF
:1000C0004D3434343334303435342034773472346E
:1000D00069347434653472342E34203476343134D7
:1000E0002E34303431342E34003483160C10043066
:1000F0008312AE000C108A112B280F08A3000E08E3
:10010000A0000F082302031D7D282008E400230817
:10011000E5008E018F018E01191F9928330B942859
:100120008316851283128512310883169900A2283E
:100130008312330B9F28831685128312851632088B
:100140008316990083126508AD006408AC008C1119
:100150008A112B28831685168312851AAD2808303C
:10016000A000C301A017C228A013C2280310851A3B
:100170000314C30C2017C2282013A00BB628430871
:10018000A100CD283F30A01B1130A100A10BC62833
:10019000A01BB428201BBC28B62808005F30A00094
:1001A000A00BD028D32893016A30A000A00BD6283A
:1001B0000000053093001508CF399500080021088C
:1001C0000319E72820088000840AA10BE228080010
:1001D000AE018E018F018E01AD01AC010C108C11AE
:1001E000310883169900043083129900831605089C
:1001F0000238850006308312A000A00BFD28000005
:1002000019088C11330B0829831685128312851265
:100210003308023C031D10298316851283128512B0
:1002200083160C148C158312080083160C108C1185
:100230000730831299008316050885000630831263
:10024000A000A00B2129000019088C110800AC089F
:10025000031D3129AD08031D31292E08043C031D5F
:1002600027292E08043C031D3A2915210030A1003E
:100270003C293C290130A100080083160512831295
:1002800005120830A10044290000A1175529A11327
:10029000DF0C03180516031C05122117552921131D
:1002A000A10B48295329000005163F308400840B18
:1002B00057290000A11B4729211B4F290800E301F2
:1002C000E201AD01AC012E08033C0319742A630856
:1002D0005F02031C742A031D71295E086202031861
:1002E000742A2721A108031D78290130A1007E2A44
:1002F0003308023C031D802983168512831285165C
:100300002D083002031CFB29031D8A292C082F020B
:10031000031CFB29AD01AC012E08023C031DF8298A
:10032000AE016108073C031DA8296008840006305F
:1003300084070310800C8403800C8403800C8403E6
:10034000800C8403800C8403800C8403800CF429CB
:1003500060088400233084070310800C8403800C21
:100360008403800C8403800C8403800C8403800C41
:100370008403800C8403800C8403800C8403800C31
:100380008403800C8403800C8403800C8403800C21
:100390008403800C8403800C8403800C8403800C11
:1003A0008403800C8403800C8403800C8403800C01
:1003B0008403800C8403800C8403800C8403800CF1
:1003C0008403800C8403800C8403800C8403800CE1
:1003D0008403800C8403800C8403800C8403800CD1
:1003E0008403800C8403800CE20A0319E30AFA29CF
:1003F0000230AE006B2AAD01AC012E08023C031D99
:10040000042A0330AE006B2AAE016108073C031DCD
:100410001C2A60088400063084070314800C8403BF
:10042000800C8403800C8403800C8403800C840380
:10043000800C8403800C682A6008840023308407C1
:100440000314800C8403800C8403800C8403800CD0
:100450008403800C8403800C8403800C8403800C50
:100460008403800C8403800C8403800C8403800C40
:100470008403800C8403800C8403800C8403800C30
:100480008403800C8403800C8403800C8403800C20
:100490008403800C8403800C8403800C8403800C10
:1004A0008403800C8403800C8403800C8403800C00
:1004B0008403800C8403800C8403800C8403800CF0
:1004C0008403800C8403800C8403800C8403800CE0
:1004D000E20A0319E30A3308023C031D732A831658
:1004E000851283128512632915212E08033C031DF2
:1004F0007C2A0230A1007E2A0030A1000800AA2038
:100500002108BD00AA202108BE00BF013F08063C0B
:10051000031C952A36303F078400C200AA204208F7
:10052000840021088000BF0A862A3D08C1003630B9
:10053000C20093010230C400DA30C5000830C502A1
:10054000031CAD2A453084000310800C00080319F9
:10055000AD2AAB2A0000800BAA2AC40B9C2A0530C6
:1005600093001508CF399500CE20C30141084302FE
:100570000318D42A420884000310800D840A800DD9
:10058000840A800D840A800D840A800D840A800DFF
:10059000840A800D031CD12AA530A000A00BCE2A0E
:1005A000D22ACE20C30AB62A36308400A0010730F2
:1005B000A100DF208530A000A00BDC2AE820272145
:1005C000A108031DE72A0130DF003D21092BDF01CF
:1005D0003E08DE003630E0000730E1005F212108F0
:1005E000C0001521C008031D062BDF013D21BF01FE
:1005F0003F08063C031C052B36303F0784000008EB
:10060000C100DF003D21BF0AF82A092B4008DF00A6
:100610003D21E42BDF013D21B60136083E200038A4
:100620000319162BB60ADF003D210D2B0D30DF001C
:100630003D210A30DF003D21DF013D21012C023048
:10064000DB004030DA0036308400A0012430A10005
:10065000DF20E820AD01AC012721A108031D342BC8
:100660000130DF003D21792B2D083002031C562B71
:10067000031D3E2B2F082C020318562BAD01AC0195
:100680005A080319DB03DA0B4D2BDB08031D4D2B36
:1006900015210330DF003D21792B2721A108031DFF
:1006A000552B0130DF003D21792B342B0130DF0049
:1006B0002030DE003630E0002430E1005F212108E8
:1006C000DC001521DC08031D762BDF013D21DD0157
:1006D0005D08233C031C752B36305D078400000841
:1006E000DE00DF003D21DD0A682B792B5C08DF008E
:1006F0003D21102CAA202108B600B608031D8A2B24
:10070000DF013D210310300CB8002F0CB700DF00D3
:100710003D21922B0310360DAF00B0010318B00A33
:10072000DF013D21162C03081F3983007130831629
:100730008F0090010F08051283120516B001BE301C
:10074000AF008630B1008430B200B301B4011F1392
:1007500083161F109F101F119F11073083129900DD
:1007600083168C110C101530831290000030A100FC
:10077000043892000F3083169200053083129300E4
:100780001508CF39950083160511831205110C3019
:10079000950031088316990007308312990083165B
:1007A0000508850006308312A000A00BD52B0000A1
:1007B00019088C11C0308B04AA202108B500350817
:1007C000633C031DE52B7F2A2E2C3508643C031D5A
:1007D000EF2BAA202108B300DF013D212E2C350884
:1007E000683C031DFC2BAA202108B200AA20210886
:1007F000B100DF013D212E2C3508693C031D022C80
:100800000A2B2E2C35086B3C031D0B2CDF013D21E0
:100810008A0100282E2C3508723C031D112C1F2B39
:100820002E2C3508743C031D172C7A2B2E2C3508E2
:10083000793C031D232C053093001508CF39950012
:10084000DF013D212E2C35087A3C031D2B2C930112
:10085000DF013D212E2CFF30DF003D21DC2B63002A
:02400E00C40CE0
:00000001FF
;PIC12F683
;CRC=C7A6  CREATED="18-ene.-20 21:22"
