:1000000003308A000C2B00000A108A100A118207A4
:1000100045346C3465346334743472346F346E3404
:1000200069346334613479346334693465346E34EB
:1000300063346934613427347334203445344D34A7
:1000400034343234303435342F3445344D34343450
:100050003334303435342034773472346934743482
:10006000653472342E342034763431342E343034C6
:1000700032342E340034831685168312851A3E28B6
:100080000830A000B801A0175328A013532803106C
:10009000851A0314B80C201753282013A00B4728E7
:1000A0003808A1005E283F30A01B1130A100A10B31
:1000B0005728A01B4528201B4D28472808005F30E3
:1000C000A000A00B6128642893016A30A000A00B57
:1000D00067280000053093001508CF399500080007
:1000E00021080319782820088000840AA10B7328AE
:1000F00008008E018F018E010C10270883169900CD
:1001000004308312990083160508023885000630F2
:100110008312A000A00B8A28000019088C118316F6
:10012000851283128512080007309900831605088E
:10013000850006308312A000A00B9C28000019083F
:100140008C110800DC01191BDC0A0030191B01307E
:100150005C02031DB2280C1CB12894200030A100C1
:10016000D428A5280F08A3000E08A0000F0823021A
:10017000031DB2282008DD002308DE005E082502EA
:10018000031CCF28031DC82824085D020318CF28AC
:100190008E018F018E010130A100D428D4288E0158
:1001A0008F018E010230A1000800D901D80105306D
:1001B000DA0059085502031CE729031DE3285408F7
:1001C00058020318E729A2202108DB0083168512B4
:1001D00083128516DB08031DF12894200130A1004D
:1001E000EA295A08053C031DFB28260883169900B6
:1001F0008312DA01D9285B0B6C295A08023C031DD3
:100200006929DA015708073C031D1929560884009B
:10021000063084070310800C8403800C8403800C58
:100220008403800C8403800C8403800C8403800C82
:10023000652956088400233084070310800C84034A
:10024000800C8403800C8403800C8403800C840362
:10025000800C8403800C8403800C8403800C840352
:10026000800C8403800C8403800C8403800C840342
:10027000800C8403800C8403800C8403800C840332
:10028000800C8403800C8403800C8403800C840322
:10029000800C8403800C8403800C8403800C840312
:1002A000800C8403800C8403800C8403800C840302
:1002B000800C8403800C8403800C8403800C8403F2
:1002C000800C8403800C8403800CD80A0319D90A9B
:1002D0006B290230DA00E2295B08023C031DE229A7
:1002E0005A08023C031D7B290330DA0094200230B7
:1002F000A100EA29E229DA015708073C031D9329E6
:1003000056088400063084070314800C8403800C94
:100310008403800C8403800C8403800C8403800C91
:100320008403800CDF2956088400233084070314DB
:10033000800C8403800C8403800C8403800C840371
:10034000800C8403800C8403800C8403800C840361
:10035000800C8403800C8403800C8403800C840351
:10036000800C8403800C8403800C8403800C840341
:10037000800C8403800C8403800C8403800C840331
:10038000800C8403800C8403800C8403800C840321
:10039000800C8403800C8403800C8403800C840311
:1003A000800C8403800C8403800C8403800C840301
:1003B000800C8403800C8403800C8403800CD80A96
:1003C0000319D90A8316851283128512D92894201D
:1003D0000030A100080083160512831205120830B0
:1003E000A100F2290000A117032AA113D50C0318BC
:1003F0000516031C05122117032A2113A10BF62948
:10040000012A000005163F308400840B052A0000F5
:10041000A11BF529211BFD2908003B202108B20062
:100420003B202108B300B4013408063C031C232AF6
:100430002B3034078400B7003B20370884002108A4
:100440008000B40A142A3208B6002B30B70093019A
:100450000230B900DA30BA000830BA02031C3B2A75
:100460003A3084000310800C000803193B2A392A13
:100470000000800B382AB90B2A2A05309300150892
:10048000CF3995005F20B801360838020318622A78
:10049000370884000310800D840A800D840A800DC3
:1004A000840A800D840A800D840A800D840A800DE0
:1004B000031C5F2AA530A000A00B5C2A602A5F20E5
:1004C000B80A442A2B308400A0010730A100702014
:1004D000A630A000A00B6A2A00007920D5013308BD
:1004E000D4002B30D6000730D700D5202108B50026
:1004F0009420B508031D8D2AD501EB21B4013408E1
:10050000063C031C8C2A2B30340784000008B600FC
:10051000D500EB21B40A7F2A902A3508D500EB21BB
:10052000532BD501EB21AB012B0804200038031914
:100530009D2AAB0AD500EB21942A0D30D500EB2182
:100540000A30D500EB21D501EB21702B0230D00011
:100550004030CF002B308400A0012430A100702057
:100560007920A2202108D1005108023C0319CF2A8A
:10057000D108031DBF2A0130D500EB21F22A510B0F
:10058000CE2A4F080319D003CF0BCE2AD008031D63
:10059000CE2A94200330D500EB21F22AB12A013073
:1005A000D5002030D4002B30D6002430D700D52001
:1005B0002108D2009420D208031DEF2AD501EB2197
:1005C000D3015308233C031CEE2A2B30530784002D
:1005D0000008D400D500EB21D30AE12AF22A520800
:1005E000D500EB217F2B3B202108AB00AB08031D7E
:1005F000032BD501EB210310250CAD00240CAC001E
:10060000D500EB210B2B03102B0DA400A501031823
:10061000A50AD501EB21852B03081F398300713012
:1006200083168F0090010F08051283120516A5018D
:10063000BE30A4008530A600AB30A700A801A901F8
:100640001F1383161F109F101F119F110730831255
:100650009900153090000030A100043892000F304E
:10066000831692000530831293001508CF39950048
:1006700083160511831205110C309500073099007F
:1006800083160508850006308312A000A00B462BB8
:10069000000019088C113B202108AA002A08633C9D
:1006A000031D542B0D2A9D2B2A08643C031D5E2B31
:1006B0003B202108A800D501EB219D2B2A08683C8E
:1006C000031D6B2B3B202108A6003B202108A7001F
:1006D000D501EB219D2B2A08693C031D712B912A22
:1006E0009D2B2A086B3C031D7A2BD501EB218A0137
:1006F00000289D2B2A08723C031D802BA62A9D2BC7
:100700002A08743C031D862BF32A9D2B2A08793C6A
:10071000031D922B053093001508CF399500D501A4
:10072000EB219D2B2A087A3C031D9A2B9301D501BE
:0E073000EB219D2BFF30D500EB214B2B6300FE
:02400E00C40CE0
:00000001FF
;PIC12F683
;CRC=2860  CREATED="22-ene.-20 18:25"
